{
  "contractName": "Cerebro",
  "abi": [
    {
      "inputs": [],
      "name": "data",
      "outputs": [
        {
          "internalType": "uint256",
          "name": "",
          "type": "uint256"
        }
      ],
      "stateMutability": "view",
      "type": "function",
      "constant": true
    },
    {
      "inputs": [
        {
          "internalType": "uint256",
          "name": "_data",
          "type": "uint256"
        }
      ],
      "name": "setData",
      "outputs": [],
      "stateMutability": "nonpayable",
      "type": "function"
    }
  ],
  "bytecode": "0x608060405234801561001057600080fd5b50610161806100206000396000f3fe608060405234801561001057600080fd5b5060043610610053576000357c0100000000000000000000000000000000000000000000000000000000900480635b4b73a91461005857806373d4a13a14610074575b600080fd5b610072600480360381019061006d91906100b7565b610092565b005b61007c61009c565b60405161008991906100ef565b60405180910390f35b8060008190555050565b60005481565b6000813590506100b181610114565b92915050565b6000602082840312156100c957600080fd5b60006100d7848285016100a2565b91505092915050565b6100e98161010a565b82525050565b600060208201905061010460008301846100e0565b92915050565b6000819050919050565b61011d8161010a565b811461012857600080fd5b5056fea2646970667358221220244cd263f93068c237a8ac7b0102350354ef99fc11af3ffef7aeed34b3138a8e64736f6c63430008010033",
  "immutableReferences": {},
  "source": "pragma solidity ^0.8.1;\r\n\r\n\r\ncontract Cerebro {\r\n\r\n    uint256 public data;\r\n\r\n    function setData(uint256 _data) public {\r\n        data = _data;\r\n    }\r\n}",
  "sourcePath": "C:/Users/guill/proyecto_mempool/contracts/Cerebro.sol",
  "compiler": {
    "name": "solc",
    "version": "0.8.1+commit.df193b15.Emscripten.clang"
  },
  "schemaVersion": "3.4.1",
  "updatedAt": "2021-06-30T02:50:10.277Z",
  "networkType": "ethereum",
  "devdoc": {
    "kind": "dev",
    "methods": {},
    "version": 1
  },
  "userdoc": {
    "kind": "user",
    "methods": {},
    "version": 1
  }
}